:100000000C947A2E0C94AB2E0C94AB2E0C94AB2E3D
:100010000C94AB2E0C94AB2E0C94AB2E0C94AB2EFC
:100020000C94AB2E0C94AB2E0C94AB2E0C94AB2EEC
:100030000C94AB2E0C94AB2E0C94AFBD0C94D985C4
:100040000C94AB2E0C948B9F0C94AB2E0C94AB2E7B
:100050000C94AB2E0C94AB2E0C94AB2E0C947F9086
:100060000C94AB2E0C94417E0C94AB2E0C94AB2EC6
:100070000C94AB2E0C94AB2E0C94AB2E0C94AB2E9C
:100080000C94AB2E0C94AB2E0C94AB2E0C94AB2E8C
:100090000C94FD7D0C94AB2E0C94AB2E0C94AB2EDB
:1000A0000C94AB2E0C94AB2E0C9490820C94AB2E33
:1000B0000C94AB2E0C9472820C94AB2E0C94AB2E41
:1000C0000C94AB2E0C94AB2E0C94AB2E0C94F481B0
:1000D0000C94AB2E0C94AB2E0C94AB2E0C94AB2E3C
:1000E0000C94AB2E9B90A990B790C490D690DD90C5
:1000F000FF901591E092E292E092E292E092E29219
:10010000E492E6922EF42EF431F42EF431F434F429
:1001100037F49201740112028401540272019E01AB
:10012000F001C601540156010A027801D60194017A
:100130004002D0012E02B601F801EA019601020246
:10014000F801DC01FC01EC018A010802000248020E
:1001500036024602C001FA01E801D8014C02AE01A4
:100160008C017A014A021C02CA0104022A027E01A1
:100170005A01340264016C01FE01AA01E4012A0261
:100180002002220224028E01C801F4011602CE01CF
:10019000DA0128024E01F201AC0152016601260289
:1001A0003E02DA01B8013C022C02180282013A0236
:1001B000B40132021402060280017601A601D201C6
:1001C0007C01084AD73B3BCE016E84BCBFFDC12FEA
:1001D0003D6C74319ABD56833DDA3D00C77F11BE38
:1001E000D9E4BB4C3E916BAAAABE000000803F053B
:1001F000A84CCDB2D44EB93836A9020C50B991866C
:1002000088083CA6AAAA2ABE000000803F076342D5
:1002100036B79BD8A71A39685618AEBAAB558C1D9D
:100220003CB7CC5763BD6DEDFD753EF6177231BF1F
:10023000000000803F08000000BE922449123EAB3F
:10024000AAAA2ABECDCCCC4C3E00000080BEABAAF0
:10025000AAAA3E00000000BF000000803F0000008E
:100260000000084178D3BB4387D1133D190E3CC32E
:10027000BD4282AD2B3E68EC8276BED98FE1A93EAD
:100280004C80EFFFBE01C4FF7F3F00000000000074
:100290000D94A2100D9404340D94907A0D9470294D
:1002A0000D9403570D948C290D946E040D948504C0
:1002B0000D9478280D94A7270D944A560D948C0020
:1002C0000D9468590D943E130D94B1270D94962901
:1002D0000D9466460D9482280D94B5270D946428DC
:1002E0000D94FD450D943E040D94FA030D94064BB8
:1002F0000D9499040D949C270D94264A0D94A327E0
:100300000D94164B0D94F34A0D941C040D947F58D4
:100310000D94C3120D94D5150D94B9210D94402957
:100320000D945F280D94EC030D9403150D94901516
:100330000D9410570D94970F0D94BA000D9444042A
:100340000D948C560D94A0000D9464120D94704A77
:100350000D945A120D94BF270D9482290D94822179
:100360000D9477070D94E1270D94B84A0D945C1510
:100370000D94B9290D9430570D946A100D94960779
:100380000D940F220D9425570D9426470D9460046B
:100390000D9445290D9492270D94FF470D945E29E5
:1003A0000D9422150D94424A0D9473280D94F21465
:1003B0000D9412210D94D7290D9492150D941C566D
:1003C0000D94D7270D949F470D94C3270D94671163
:1003D0000D947F200D947D150D94C3150D946928FF
:1003E0000D9452040D9478290D944A290D94DF47F9
:1003F0000D94DC140D94601F0D94AF150D94BB2764
:100400000D94251F0D948B150D9498270D94974AE4
:100410000D941C1F0D948B040D947D280D94934610
:100420000D9434120D940A040D94A24A0D9454298B
:100430000D945B480D94E8460D948E270D94471259
:100440000D94C9270D94CD270D94D1270D94A5297E
:100450000D9468290D94D6270D94CD290D942C1553
:100460000D9421120D94AD4A0D94AD270D94A21E4A
:100470000D94DD270D94C34A0D94C3290D94AF2923
:100480000D9415150D94E10F0D94E6270D94721E31
:100490000D94D31E0D949F270D9466210D946E2804
:1004A0000D945C470D9413780D9438046E616E00C2
:1004B000696E66004E414E494E495459494E46CDEB
:1004C000CCCC3D0AD7233C17B7D13877CC2B32950B
:1004D00095E6241FB14F0A000020410000C84200E9
:1004E000401C4620BCBE4CCA1B0E5AAEC59D7400B3
:1004F000407A10F35A00A0724E18090010A5D4E8F3
:100500000000E87648170000E40B54020000CA9A85
:100510003B000000E1F505000080969800000040D7
:10052000420F000000A0860100000010270000001C
:1005300000E803000000006400000000000A000062
:100540000000000100000000002C76D888DC674F16
:100550000823DFC1DFAE59E1B1B796E5E3E453C646
:100560003AE651997696E8E6C28426EB898C9B623E
:10057000ED407C6FFCEFBC9C9F40F2BAA56FA5F4E8
:1005800090055A2AF75C936B6CF9676DC11BFCE010
:10059000E40D47FEF520E6B500D0ED902E03009463
:1005A0003577050080841E080000204E0A000000F8
:1005B000C80C333333330F986E12831141EF8D2102
:1005C00014893BE65516CFFEE6DB18D1844B381B69
:1005D000F77C1D901DA4BBE424203284725E22812E
:1005E00000C9F124ECA1E53D276364696E6F707367
:1005F0007578585B00256420627974657320777282
:10060000697474656E20746F20454550524F4D20BB
:1006100061742061646472657373203078253034AE
:1006200078004433202D20526561642F577269741D
:100630006520454550524F4D0A0020436F756E743A
:1006400020583A20005344207072696E74696E67B6
:10065000206279746520004163746976652045786D
:100660007472756465723A2000496E76616C6964D3
:10067000206578747275646572005A204F666673DF
:10068000657400556E6B6E6F776E20636F6D6D6174
:100690006E643A2022004D32303020496E76616C13
:1006A000696420657874727564657220007A5F6D84
:1006B00061783A20007A5F6D696E3A2000795F6D4B
:1006C000696E3A20006F70656E0054524947474585
:1006D00052454400785F6D696E3A20005265706F34
:1006E0007274696E6720656E6473746F70207374C2
:1006F000617475730053494C454E54004E4F524D32
:10070000414C002553204D4F44453A2050657263BB
:10071000656E7420646F6E653A2025643B207072AC
:10072000696E742074696D652072656D61696E69AA
:100730006E6720696E206D696E733A2025640A0029
:10074000456E642066696C65206C6973740042654F
:1007500067696E2066696C65206C697374000A5065
:10076000494E44412074656D70657261747572659F
:100770003A20252E3166205A207368696674202835
:100780006D6D293A20252E3366000A537465703A40
:100790002025642F360A000A537465703A202564B8
:1007A0002F362028736B6970706564290A50494E92
:1007B00044412074656D70657261747572653A208C
:1007C0002564205A20736869667420286D6D293A63
:1007D000300A000A5A45524F3A20252E33660A0045
:1007E00073746172742074656D7065726174757272
:1007F000653A20252E31660A0025642020252E32F8
:100800006600255320583A20252E356620593A2077
:10081000252E3566205A3A20252E35660A00536C5F
:100820006565702E2E2E004E6F7420696E206661F5
:10083000726D206D6F64652E0025640045303A2589
:10084000642052504D0A50524E303A256420525086
:100850004D0A00256400442D31202D20456E646C26
:10086000657373206C6F6F700A00416476616E630C
:1008700065204B3D004B206F7574206F6620616CC6
:100880006C6F7765642072616E676521004D32324E
:10089000302053256900255346696C616D656E747F
:1008A0002073657474696E67733A2044697361627A
:1008B0006C65640A00255346696C616D656E742031
:1008C00073657474696E67733A0A25532020204D4E
:1008D0003230302044252E32660A0025535265748A
:1008E000726163743A20533D4C656E6774682028CA
:1008F0006D6D2920463A537065656420286D6D2F13
:100900006D29205A3A205A4C69667420286D6D2949
:100910000A25532020204D3230372053252E3266B1
:100920002046252E3266205A252E32660A2553523D
:1009300065636F7665723A20533D45787472612025
:100940006C656E67746820286D6D2920463A537077
:1009500065656420286D6D2F6D290A2553202020A0
:100960004D3230382053252E32662046252E3266F1
:100970000A25534175746F2D526574726163743A20
:1009800020533D3020746F2064697361626C652C64
:10099000203120746F20696E7465727072657420E6
:1009A000657874727564652D6F6E6C79206D6F76E5
:1009B0006573206173207265747261637473206F54
:1009C00072207265636F7665726965730A255320BC
:1009D00020204D323039205325640A0025535049D8
:1009E0004420686561746265642073657474696E1F
:1009F00067733A0A25532020204D33303420502588
:100A00002E32662049252E32662044252E32660A73
:100A10000025535049442073657474696E67733AB6
:100A20000A25532020204D3330312050252E3266A8
:100A30002049252E32662044252E32660A00255391
:100A400053746570732070657220756E69743A0A0C
:100A5000255320204D39322058252E326620592525
:100A60002E3266205A252E32662045252E32660A01
:100A700025534D6178696D756D2066656564726199
:100A800074657320286D6D2F73293A0A2553202031
:100A90004D3230332058252E32662059252E3266AD
:100AA000205A252E32662045252E32660A25534DC2
:100AB0006178696D756D20616363656C65726174E1
:100AC000696F6E20286D6D2F7332293A0A255320E5
:100AD000204D3230312058256C752059256C7520F9
:100AE0005A256C752045256C750A2553416363654D
:100AF0006C65726174696F6E3A20533D6163636522
:100B00006C65726174696F6E2C20543D72657472ED
:100B100061637420616363656C65726174696F6E93
:100B20000A255320204D3230342053252E326620A2
:100B300054252E32660A2553416476616E636564DE
:100B4000207661726961626C65733A20533D4D692C
:100B50006E20666565647261746520286D6D2F7303
:100B6000292C20543D4D696E2074726176656C208D
:100B7000666565647261746520286D6D2F73292C1C
:100B800020423D6D696E696D756D207365676D6599
:100B90006E742074696D6520286D73292C20583D72
:100BA0006D6178696D756D205859206A65726B208A
:100BB000286D6D2F73292C20205A3D6D6178696D49
:100BC000756D205A206A65726B20286D6D2F732910
:100BD0002C2020453D6D6178696D756D2045206A3A
:100BE00065726B20286D6D2F73290A255320204DC7
:100BF0003230352053252E32662054252E32662081
:100C000042252E32662058252E32662059252E3256
:100C100066205A252E32662045252E32660A255337
:100C2000486F6D65206F666673657420286D6D2949
:100C30003A0A255320204D3230362058252E326670
:100C40002059252E3266205A252E32660A00462566
:100C5000642025640A004D4D55203C3D2027462543
:100C600064202564270A00504944204175746F743C
:100C7000756E652066696E697368656421205075BC
:100C80007420746865206C617374204B702C204B49
:100C90006920616E64204B6420636F6E7374616EB3
:100CA00074732066726F6D2061626F766520696E65
:100CB000746F20436F6E66696775726174696F6ED9
:100CC0002E6800504944204175746F74756E65201C
:100CD0006661696C6564212074696D656F75740067
:100CE00020403A00543A00423A00504944204175AD
:100CF000746F74756E65206661696C65642120543B
:100D0000656D706572617475726520746F6F2068AF
:100D100069676800204B643A2000204B693A200044
:100D2000204B703A200020436C617373696320503C
:100D3000494420002054753A2000204B753A200089
:100D4000206D61783A2000206D696E3A20002064A1
:100D50003A200020626961733A200020453A002061
:100D60005A3A0020593A0020453A00205A3A0020C9
:100D7000593A00583A004361703A25533A25630ABC
:100D8000004155544F5245504F52545F54454D50B9
:100D900000002E0044656C6574696F6E20666169A1
:100DA0006C65642C2046696C653A200046696C6568
:100DB0002064656C657465643A004E6F742053441A
:100DC000207072696E74696E67005072696E74206B
:100DD0007361766564005344207072696E7420708C
:100DE0006175736564003B53002228322900447505
:100DF000706C696361746520542D636F646520694C
:100E0000676E6F7265642E0A004475706C69636169
:100E1000746520542D636F64652069676E6F726519
:100E2000642E0A00496E76616C6964205420636FF9
:100E300064652E00556E6B6E6F776E204D20636F6C
:100E400064653A202573200A006E6F2076616C6914
:100E50006420636F6D6D616E64002C20002C200097
:100E60002C20006E2F61002C20002C20002C200054
:100E70006E2F6100503A005761697420666F7220CE
:100E800050494E4441207461726765742074656DE9
:100E900070657261747572653A004C414E4720531B
:100EA000454C20464F5243454400256925250A00FC
:100EB000256925250A0022283129003030303030BC
:100EC0003030302D303030302D303030302D30302B
:100ED00030302D3030303030303030303030300045
:100EE00020555549443A0031002045585452554444
:100EF00045525F434F554E543A003330333020480B
:100F0000617269626F2045646974696F6E202D207B
:100F10004D4B322E355300204D414348494E455FDD
:100F2000545950453A00312E300020626173656497
:100F3000206F6E204D61726C696E204649524D578C
:100F40004152455F55524C3A68747470733A2F2F72
:100F50006769746875622E636F6D2F707275736147
:100F600033642F50727573612D4669726D776172AB
:100F7000652050524F544F434F4C5F564552534992
:100F80004F4E3A004649524D574152455F4E414DF2
:100F9000453A50727573612D4669726D776172655D
:100FA00020004D31313320530020423A0020453A91
:100FB00000543A006F6B20002569206D696E2C206B
:100FC00025692073656300496E76616C6964204D04
:100FD00020636F64653A202573200A00556E6B6E9E
:100FE0006F776E204720636F64653A202573200A6F
:100FF000004D65736820626564206C6576656C6978
:101000006E67206E6F74206163746976652E0020B0
:1010100020000A4D6561737572656420706F696E9A
:1010200074733A000A5A20736561726368206865B8
:10103000696768743A20004E756D20582C593A2023
:1010400000206D6963726F6E73004578636573731A
:1010500069766520626564206C6576656C696E678B
:1010600020636F7272656374696F6E3A2000426527
:1010700064206C6576656C696E67206661696C6575
:10108000642E2053656E736F722074726967676592
:1010900072656420746F6F20686967682E0A004269
:1010A0006564206C6576656C696E67206661696C45
:1010B00065642E2053656E736F7220646973636F6D
:1010C0006E6E6563746564206F72206361626C6527
:1010D0002062726F6B656E2E0A00473238205730DF
:1010E0000050494E44412070726F62652063616C0C
:1010F0006962726174696F6E207374617274004703
:101100003238205730004D323400472D636F64650C
:1011100020736C6963656420666F72206120646966
:1011200066666572656E74206C6576656C2E20430C
:101130006F6E74696E75653F00472D636F6465203F
:10114000736C6963656420666F72206120646966F0
:10115000666572656E74206C6576656C2E20506CC9
:10116000656173652072652D736C696365207468B1
:1011700065206D6F64656C20616761696E2E20501B
:1011800072696E742063616E63656C6C65642E00B9
:10119000472D636F646520736C6963656420666FB7
:1011A000722061206E65776572206669726D776165
:1011B00072652E20506C6561736520757064617472
:1011C0006520746865206669726D776172652E208E
:1011D0005072696E742063616E63656C6C65642E19
:1011E00000472D636F646520736C696365642066D6
:1011F0006F722061206E65776572206669726D7707
:101200006172652E20436F6E74696E75653F00478D
:101210002D636F646520736C6963656420666F720B
:10122000206120646966666572656E7420707269FB
:101230006E74657220747970652E20506C656173D0
:10124000652072652D736C69636520746865206D17
:101250006F64656C20616761696E2E205072696EE3
:10126000742063616E63656C6C65642E00472D634A
:101270006F646520736C6963656420666F722061BA
:1012800020646966666572656E74207072696E743A
:10129000657220747970652E20436F6E74696E7567
:1012A000653F00472D636F646520736C69636564F7
:1012B00020666F72206120646966666572656E746F
:1012C000207072696E74657220747970652E204387
:1012D0006F6E74696E75653F00472D636F6465209E
:1012E000736C6963656420666F722061206469664F
:1012F000666572656E74207072696E7465722074B2
:101300007970652E20506C656173652072652D7350
:101310006C69636520746865206D6F64656C20611D
:101320006761696E2E205072696E742063616E630E
:10133000656C6C65642E005072657373206B6E6F04
:101340006220746F2070726568656174206E6F7AB8
:101350007A6C6520616E6420636F6E74696E75656A
:101360002E00506C65617365207072657373207414
:101370006865206B6E6F6220746F20756E6C6F6194
:10138000642066696C616D656E740052656D6F7680
:1013900065206F6C642066696C616D656E74206198
:1013A0006E6420707265737320746865206B6E6F55
:1013B0006220746F207374617274206C6F61646951
:1013C0006E67206E65772066696C616D656E742E40
:1013D00000616E6420707265737320746865206BA1
:1013E0006E6F6200496E736572742066696C616D20
:1013F000656E7400436F6C6F72206E6F7420636F44
:1014000072726563740046696C616D656E74206EFE
:101410006F74206C6F61646564004368616E67651A
:101420006420636F72726563746C793F004C6F6106
:1014300064696E6720636F6C6F72004368616E67EA
:101440006520737563636573732100506C65617308
:1014500065206F70656E2069646C657220616E64D2
:101460002072656D6F76652066696C616D656E745E
:10147000206D616E75616C6C792E0057617320660A
:10148000696C616D656E7420756E6C6F616420733C
:1014900075636365737366756C3F00506C6561734B
:1014A0006520757067726164652E004E65772066F1
:1014B00069726D776172652076657273696F6E20EF
:1014C000617661696C61626C653A00576169746943
:1014D0006E6720666F722050494E44412070726FD3
:1014E000626520636F6F6C696E6700457874727512
:1014F0006465720043686F6F7365206578747275F8
:101500006465723A0043686F6F73652066696C6149
:101510006D656E743A004E6F206D6F76652E0057C4
:1015200061697420666F7220757365722E2E2E00AD
:10153000536F6D652070726F626C656D20656E63B0
:101540006F756E74657265642C205A2D6C657665B6
:101550006C696E6720656E666F72636564202E2EFF
:101560002E00537461626C6520616D6269656E74F2
:101570002074656D70657261747572652032312DED
:10158000323643206973206E65656465642061208E
:101590007269676964207374616E64206973207274
:1015A000657175697265642E00506C6561736520A4
:1015B00072756E2058595A2063616C696272617449
:1015C000696F6E2066697273742E0058300A00616C
:1015D00064635F696E69740A000A204F7269676903
:1015E0006E616C2050727573612069330A2020206F
:1015F0005072757361205265736561726368004350
:101600006F6E74696E7565207769746820616E6F9E
:101610007468657220626F7764656E3F00250020F4
:101620002020202020002020202020200045524182
:1016300053494E4720616C6C2064617461004661BF
:1016400063746F7279205245534554004661637448
:101650006F72792052455345540044495341424CDE
:10166000454400454E41424C4544004653656E7327
:101670006F72202553005052555341334446570052
:101680004D4B322E35534D4D553253001C4F4D4B63
:10169000322E355300FC004F63742020332032304B
:1016A000323000436F6D70696C65643A2000286EBB
:1016B0006F6E652C2064656661756C7420636F6E57
:1016C00066696729004F637420203320323032303E
:1016D0002032323A35393A31320020332E392E3128
:1016E0002D333531380A00737461727400205570DF
:1016F0006C6F616420696E2070726F6772657373BE
:1017000000205A3A0020593A0020583A004D323908
:10171000005468657265206973207374696C6C206D
:1017200061206E65656420746F206D616B65205A61
:101730002063616C6962726174696F6E2E20506CF7
:101740006561736520666F6C6C6F772074686520C7
:101750006D616E75616C2C206368617074657220B8
:1017600046697273742073746570732C207365639B
:1017700074696F6E2043616C6962726174696F6E27
:1017800020666C6F772E005072696E7465722068E7
:101790006173206E6F74206265656E2063616C6991
:1017A000627261746564207965742E20506C656185
:1017B000736520666F6C6C6F7720746865206D614F
:1017C0006E75616C2C206368617074657220466967
:1017D0007273742073746570732C207365637469FD
:1017E0006F6E2043616C6962726174696F6E20660E
:1017F0006C6F772E004F6C642073657474696E672C
:101800007320666F756E642E2044656661756C7416
:10181000205049442C2045737465707320657463AF
:101820002E2077696C6C206265207365742E0057DA
:1018300061726E696E673A20626F746820707269B7
:101840006E746572207479706520616E64206D6FAE
:1018500074686572626F6172642074797065206368
:1018600068616E6765642E005761726E696E673AD3
:10187000207072696E746572207479706520636877
:10188000616E6765642E005761726E696E673A20FB
:101890006D6F74686572626F6172642074797065CF
:1018A000206368616E6765642E002020506C616E55
:1018B0006E657242756666657242797465733A2028
:1018C000002046726565204D656D6F72793A200083
:1018D000207C20417574686F723A2000204C61733F
:1018E0007420557064617465643A200020536F66FB
:1018F0007477617265205265736574002057617456
:101900006368646F67205265736574002042726F6C
:10191000776E206F7574205265736574002045786A
:101920007465726E616C20526573657400506F77D8
:1019300065725570006572726F7220777269746992
:101940006E6720746F2066696C6500656E647374E1
:101950006F7073206869743A2000446F6E6520735D
:101960006176696E672066696C652E006F6B005842
:10197000595A2063616C6962726174696F6E20618B
:101980006C6C2072696768742E20536B65772077C2
:10199000696C6C20626520636F7272656374656444
:1019A000206175746F6D61746963616C6C792E0070
:1019B00058595A2063616C6962726174696F6E2054
:1019C000616C6C2072696768742E20582F592061F1
:1019D0007865732061726520736C696768746C79CF
:1019E00020736B657765642E20476F6F64206A6F84
:1019F00062210058595A2063616C6962726174698E
:101A00006F6E206F6B2E20582F59206178657320E0
:101A10006172652070657270656E646963756C6172
:101A2000722E20436F6E67726174756C6174696F9A
:101A30006E73210058595A2063616C696272617437
:101A4000696F6E206661696C65642E2052696768F3
:101A5000742066726F6E742063616C696272617467
:101A6000696F6E20706F696E74206E6F742072657E
:101A700061636861626C652E0058595A2063616C1D
:101A80006962726174696F6E206661696C65642E4B
:101A90002046726F6E742063616C69627261746952
:101AA0006F6E20706F696E7473206E6F7420726534
:101AB00061636861626C652E0058595A2063616CDD
:101AC0006962726174696F6E206661696C65642E0B
:101AD00020506C6561736520636F6E73756C742044
:101AE000746865206D616E75616C2E0058595A20BE
:101AF00063616C6962726174696F6E20636F6D708F
:101B0000726F6D697365642E205269676874206610
:101B1000726F6E742063616C6962726174696F6E5A
:101B200020706F696E74206E6F74207265616368D7
:101B300061626C652E0058595A2063616C6962724B
:101B40006174696F6E20636F6D70726F6D6973651C
:101B5000642E2046726F6E742063616C69627261DC
:101B600074696F6E20706F696E7473206E6F74206D
:101B7000726561636861626C652E0058595A206312
:101B8000616C6962726174696F6E206661696C650F
:101B9000642E204265642063616C696272617469BD
:101BA0006F6E20706F696E7420776173206E6F7432
:101BB00020666F756E642E00506C656173652070D1
:101BC0006C61636520737465656C2073686565740A
:101BD000206F6E20686561746265642E00446973CD
:101BE00074616E6365206265747765656E207469E3
:101BF00070206F6620746865206E6F7A7A6C65203D
:101C0000616E642074686520626564207375726615
:101C100061636520686173206E6F74206265656E14
:101C200020736574207965742E20506C656173652E
:101C300020666F6C6C6F7720746865206D616E75BF
:101C4000616C2C20636861707465722046697273E0
:101C5000742073746570732C2073656374696F6E80
:101C6000204669727374206C617965722063616CBF
:101C70006962726174696F6E2E00506C61636520D9
:101C800061207368656574206F662070617065728D
:101C900020756E64657220746865206E6F7A7A6C48
:101CA0006520647572696E67207468652063616C75
:101CB0006962726174696F6E206F66206669727303
:101CC00074203420706F696E74732E2049662074FE
:101CD0006865206E6F7A7A6C6520636174636865ED
:101CE00073207468652070617065722C20706F7746
:101CF0006572206F666620746865207072696E7404
:101D0000657220696D6D6564696174656C792E001A
:101D1000506C656173652072656D6F7665207374B4
:101D200065656C2073686565742066726F6D2068E8
:101D30006561746265642E00497320737465656C17
:101D4000207368656574206F6E20686561746265D4
:101D5000643F00206F6620340053656172636869D8
:101D60006E67206265642063616C69627261746988
:101D70006F6E20706F696E7400206F662039004DA1
:101D80006561737572696E67207265666572656EEE
:101D9000636520686569676874206F662063616C9D
:101DA0006962726174696F6E20706F696E74005041
:101DB0006C6561736520636C65616E207468652075
:101DC0006E6F7A7A6C6520666F722063616C6962EF
:101DD000726174696F6E2E20436C69636B20776843
:101DE000656E20646F6E652E004175746F20686F9C
:101DF0006D650078797A63616C5F6D656173737589
:101E000072655F656E7465720A0078797A63616CD9
:101E10005F73706972616C382063783D256420635C
:101E2000793D2564207A303D256420647A3D25641F
:101E3000207261646975733D25642061643D256489
:101E40000A0078797A63616C5F7365617263685ABE
:101E5000206E6F207369676E616C0A20783D256C77
:101E60006420793D256C64207A3D256C640A00204D
:101E70004F4E2D5349474E414C20617420783D25EB
:101E80006420793D2564207A3D25642061643D25E8
:101E9000640A0078797A63616C5F73656172636864
:101EA0005A20783D256C6420793D256C64207A3D6C
:101EB000256C640A000A00253032780078797A634C
:101EC000616C5F7363616E5F706978656C735F33BB
:101ED000327833322063783D25642063793D256470
:101EE000206D696E5F7A3D2564206D61785F7A3D73
:101EF00025640A00202532642025640A000A002592
:101F000030327800206D696E3D2564206D61783D2A
:101F10002564206469663D25640A006D61785F630D
:101F20003D253264206D61785F6C3D25640A006D4B
:101F300061785F633D2564206D61785F723D256443
:101F4000206D61785F6D617463683D25640A0020CF
:101F5000783D256420793D2564207A3D25640A007A
:101F6000207061747465726E20666F756E64206196
:101F7000742025642025640A000000F000F801FCAC
:101F800003FE07FE07FE07FE07FC03F801F0000052
:101F90000073697A656F6628746F74616C293D25DA
:101FA000640A0073697A656F6628626C6F636B5FA1
:101FB000627566666572293D25640A0078797A63E0
:101FC000616C5F6D656173737572655F6C65617679
:101FD000650A00706F696E743D256420783D256444
:101FE00020793D2564207A3D25640A00BC02BC02AC
:101FF000584D584DB004F055F055B00478797A63D7
:10200000616C5F66696E645F6265645F696E64756A
:102010006374696F6E5F73656E736F725F706F6903
:102020006E745F787920783D256C6420793D256C4D
:1020300064207A3D256C640A00203C200057415200
:102040004E494E473A2046726F6E7420706F696E2B
:1020500074206E6F7420726561636861626C652EB6
:10206000205920636F6F7264696E6174653A000075
:10207000000040410000804000005C4300008040C0
:1020800000005C4300004443000040410000444322
:10209000497465726174696F6E3A200043616C69BE
:1020A00062726174696F6E206661696C656421207B
:1020B000436865636B20746865206178657320618F
:1020C0006E642072756E20616761696E2E005553D3
:1020D000415254322072782046756C6C2121210ABD
:1020E0000053657474696E67732053746F7265640E
:1020F0000053746F7265642073657474696E6773DE
:102100002072657472696576656400486172646303
:102110006F6465642044656661756C7420536574F2
:1021200074696E6773204C6F616465640056320099
:10213000000000C8420000C8420000C8430000057B
:10214000430000484300004843000040410000F0C5
:1021500042E8030000E8030000C800000088130004
:102160000000409C4400409C44000000000000002F
:1021700000204E00000000204100002041CDCCCCCA
:102180003E00009040000000000000000000000041
:1021900000CDCCCC3E3D0A8141FF08433EB099AB17
:1021A000438F42FC42E65A343F4C62B04500000087
:1021B0000000404000003442000000000000000029
:1021C00000000041000000E03F00002C4300002C14
:1021D00043000040410000F042C0030000C0030083
:1021E00000C8000000881300001010101062757302
:1021F000793A2070617573656420666F7220696E2C
:1022000070757400627573793A20706175736564D6
:1022100020666F72207573657200627573793A205B
:1022200070726F63657373696E670000007A4300B4
:102230000052430000614300000000000080C09A8B
:1022400099193E00000000000080C09A99193E20B4
:10225000503A002042403A0020403A00202F00200F
:102260005400202F0020423A00202F00543A0067EB
:10227000636F64655F4D37303120626567696E0A50
:102280000047312059252D2E32662045252D2E332D
:1022900066004731205825642059252D2E326620AE
:1022A00045252D2E3366006673656E736F725F630E
:1022B0006865636B706F696E745F7072696E740AC3
:1022C00000312E3000312E3500554E4B4E4F574EBB
:1022D000004C413130433A204C696E6561722041B7
:1022E0006476616E6365206D6F64653A20004C41D1
:1022F0003130433A2041646A757374656420452D1A
:102300004A65726B3A2000000E1315110E00000092
:1023100004120912040000001C1F11111F0000000C
:1023200006191803130C00040E1F041C00000004FF
:102330000A0A0A0A11110E001F1511151F000000CC
:102340000103161C0800000000110A04110A040C05
:1023500012120C000000002563252D31382E313873
:1023600053256300252E31305320002563252D3160
:10237000382E3138732563002563252D2E313653D1
:1023800020005B25735D2563005B25535D2563009D
:102390002563252D31382E313853002563252E3104
:1023A00035533A25732533640022206661696C65D4
:1023B000643A204275666665722066756C6C210011
:1023C0002200256920686F757273202569206D6968
:1023D0006E757465730054494D454F55543A004D20
:1023E0003131300046756C6C20525820427566665B
:1023F000657200437573746F6D00546578747572FF
:1024000000536D6F6F746800656E717565696E67F6
:10241000202200446F6E65207072696E74696E6769
:102420002066696C65004D3131322063616C6C65EA
:10243000642E20456D657267656E63792053746FF5
:10244000702E005072696E7465722073746F7070B4
:1024500065642064756520746F206572726F727395
:102460002E2046697820746865206572726F72202C
:10247000616E6420757365204D39393920746F2081
:10248000726573746172742E202854656D70657264
:1024900061747572652069732072657365742E208E
:1024A0005365742069742061667465722072657367
:1024B00074617274696E6729004E6F204C696E6595
:1024C000204E756D62657220776974682063686557
:1024D000636B73756D2C204C617374204C696E6551
:1024E0003A20004E6F20436865636B73756D2077EB
:1024F000697468206C696E65206E756D6265722CFA
:10250000204C617374204C696E653A2000636865E5
:10251000636B73756D206D69736D617463682C20D6
:102520004C617374204C696E653A20004C696E658D
:10253000204E756D626572206973206E6F74204C39
:10254000617374204C696E65204E756D6265722BE7
:10255000312C204C617374204C696E653A20005315
:10256000544F505045442E200024F4D43050C38E94
:1025700020C2A24017828B7011127A910D816CD902
:102580000AA861E108C7586607615143061E4B5D02
:1025900005C145A7041A411104093D980371393159
:1025A000034036DB0265339102D4305402802E1D85
:1025B00002632CEE01752AC501B028A00110278105
:1025C000018F2564012B244B01E0223401AC211F33
:1025D000018D200D01801FFC00841EED00971DDF82
:1025E00000B81CD200E61BC600201BBC00641AB257
:1025F00000B219A8000A19A0006A189900D1179111
:102600000040178B00B516840031167E00B3157993
:10261000003A157300C7146F0058146A00EE136671
:10262000008813630025135E00C7125B006C12570D
:102630000015125400C111510070114F0021114BAF
:1026400000D61049008D1047004610440002104289
:1026500000C00F4000800F3E00420F3C00060F3BC1
:1026600000CB0E3800930E37005C0E3500270E3479
:1026700000F30D3200C10D3100900D3000600D2EC1
:1026800000320D2D00050D2C00D90C2B00AE0C29AD
:1026900000850C29005C0C2700350C27000E0C2649
:1026A00000E80B2400C40B2400A00B23007D0B23A7
:1026B000005A0B2100390B2100180B2000F80A1FCB
:1026C00000D90A1E00BB0A1E009D0A1D00800A1DBB
:1026D00000630A1C00470A1B002C0A1B00110A1A7F
:1026E00000F7091A00DD091900C4091900AB09191E
:1026F00000920917007B091800630917004C09169E
:102700000036091600200916000A091500F50815FB
:1027100000E0081400CC081400B8081400A4081441
:1027200000900813007D0812006B0813005808126F
:102730000046081200340811002308110012081185
:102740000001081100F0071000E0071000D007108A
:1027500000C0071000B0070F00A107100091070E7E
:102760000083070F0074070F0065070E0057070E60
:102770000049070E003B070D002E070E0020070D35
:102780000013070D0006070D00F9060C00ED060DFD
:1027900000E0060C00D4060C00C8060C00BC060CB9
:1027A00000B0060C00A4060B0099060C008D060B69
:1027B0000082060B0077060B006C060B0061060A10
:1027C0000057060B004C060A0042060A0038060AAB
:1027D000002E060A0024060A001A060A001006093E
:1027E0000007060A00FD050900F4050900EB0509CC
:1027F00000E2050900D9050900D0050900C705094F
:1028000000BE050900B5050800AD050800A50509CD
:10281000009C050800940508008C05080084050844
:10282000007C050800740508006C050700650508B4
:10283000005D050700560508004E0507004705071F
:10284000004005080038050700310507002A050784
:1028500000230507001C050600160507000F0507E5
:10286000000805060002050700FB040600F5040742
:1028700000EE040600E8040600E2040700DB04069C
:1028800000D5040600CF040600C9040600C30406F0
:1028900000BD040600B7040600B1040500AC040640
:1028A00000A6040600A00405009B0406009504058C
:1028B00000900406008A04050085040500800406D3
:1028C000007A04050075040500700405006B04051A
:1028D0000066040500610405005C0405005704055A
:1028E00000520405004D040500480405004304059A
:1028F000003E0404003A04050035040500300404D9
:10290000002C04050027040400230405001E040411
:10291000001A04040016040500110404000D040448
:1029200000090405000404040000040400FC03047E
:1029300000F8030400F4030400F0030400EC0304B3
:1029400000E8030400E4030400E0030400DC0304E3
:1029500000D8030400D4030400D0030400CC030413
:1029600000C8030300C503030024F404D9201BC4DA
:102970000C5C0E9804C4095F0265077101F405F947
:1029800000FB04B30048048700C1036900580355E5
:102990000003034500BE023A008402310053022ABC
:1029A000002902250004022000E4011C00C80119CE
:1029B00000AF011700980114008401130071011089
:1029C000006101100051010E0043010D0036010BA2
:1029D000002B010B0020010B00150109000C01095F
:1029E0000003010800FB000800F3000800EB0007EB
:1029F00000E4000600DE000600D8000600D2000653
:102A000000CC000500C7000500C2000500BD0004A1
:102A100000B9000400B5000400B1000400AD0004DA
:102A200000A9000400A5000300A20003009F000409
:102A3000009B000300980003009500020093000330
:102A400000900003008D0002008B0003008800024C
:102A5000008600020084000300810002007F000263
:102A6000007D0002007B0002007900020077000177
:102A70000076000200740002007200010071000282
:102A8000006F0002006D0001006C0002006A00018E
:102A90000069000200670001006600010065000196
:102AA000006400020062000100610001006000019A
:102AB000005F0002005D0001005C0001005B00019E
:102AC000005A0001005900010058000100570001A0
:102AD00000560001005500010054000100530000A1
:102AE000005300010052000100510001005000019C
:102AF000004F0001004E0000004E0001004D00019B
:102B0000004C0001004B0000004B0001004A000196
:102B10000049000100480000004800010047000192
:102B2000004600000046000100450000004500018D
:102B30000044000100430000004300010042000087
:102B4000004200010041000000410001004000017E
:102B5000003F0000003F0001003E0000003E000179
:102B6000003D0000003D0001003C0000003C000072
:102B7000003C0001003B0000003B0001003A000067
:102B8000003A00010039000000390001003800005F
:102B90000038000000380001003700000037000155
:102BA000003600000036000000360001003500004D
:102BB0000035000000350001003400000034000042
:102BC0000034000100330000003300000033000136
:102BD000003200000032000000320001003100002D
:102BE0000031000000310001003000000030000022
:102BF00000300001002F0000002F0000002F000017
:102C0000002F0001002E0000002E0000002E000109
:102C1000002D0000002D0000002D0000002D0001FF
:102C2000002C0000002C0000002C0000002C0001F3
:102C3000002B0000002B0000002B0000002B0001E7
:102C4000002A0000002A0000002A0000002A0001DB
:102C500000290000002900000029000000290000D0
:102C600000290001002800000028000000280000C2
:102C700000280000002800010027000000270000B5
:102C800000270000002700000027000100260000A8
:102C9000002600000026000000260000002600019B
:102CA0000025000000250000002500000025000090
:102CB0000025000000250001002400000024000081
:102CC0000024000000240000002400010023000074
:102CD0000023000000230000002300000023000068
:102CE0000023000000230001002200000022000059
:102CF000002200000022000000220000002200014B
:102D0000002100000021000000210000002100003F
:102D1000002100000021000000210001002000002F
:102D20000020000000200000002000000020000023
:102D3000002000000020000000200001001F000013
:102D4000001F0000001F0000001F0000001F000007
:102D5000001F0000001F0001001E0000001E0000F8
:102D6000001E0000001E0000001000C90210012C0F
:102D7000014001220170011801B0010E01F00104AF
:102D8000015002FA00B002F0003003E600D003DC8C
:102D9000009004D2007005C800A006BE000008B470
:102DA00000B009AA00D00BA000600E960060118C44
:102DB000000015820020197800C01D6E00A022645A
:102DC00000B0275A00902C500000314600E0343CFF
:102DD0000010383200903A2800603C1E00A03D14DC
:102DE00000803E0A00203F000045303A20005A3A59
:102DF0002000593A2000583A20004D53312C4D53B1
:102E0000322050696E730A00457874727564657279
:102E10002066616E207370656564206973206C6F35
:102E2000776572207468616E20657870656374657B
:102E300064005072696E742066616E2073706565FF
:102E400064206973206C6F776572207468616E20EE
:102E50006578706563746564004D494E54454D5006
:102E6000004D494E54454D5020424544004D415877
:102E700054454D50004D415854454D502042454415
:102E800000202D20496E76616C696420657874722B
:102E900075646572206E756D626572202100700127
:102EA0002C0190012701B0012201C0011D01F00198
:102EB00018011002130130020E0160020901900294
:102EC0000401C002FF000003FA004003F500800384
:102ED000F000D003EB002004E6007004E100E00401
:102EE000DC004005D700C005D2004006CD00D0066A
:102EF000C8008007C3003008BE00F008B900C00950
:102F0000B400B00AAF00B00BAA00D00CA500000EB0
:102F1000A000500F9B00C0109600501291000014AA
:102F20008C00C0158700B0178200B0197D00D01B3F
:102F30007800001E730040206E0090226900F0248B
:102F4000640040275F0090295A00E02B5500102EA6
:102F5000500020304B0010324600E03341009035E5
:102F60003C001037370070383200A0392D00B03ADD
:102F70002800A03B2300603C1E00103D1900903D3E
:102F80001400103E0F00703E0A00C03E0500003FD6
:102F9000000020484F54454E4420544845524D416E
:102FA0004C2052554E41574159002048454154420A
:102FB000454420544845524D414C2052554E4157AE
:102FC000415900544845524D414C2052554E4157AD
:102FD00041590042454420544845524D414C2052ED
:102FE000554E415741590020544845524D414C20BF
:102FF00052554E415741592028205052454845418D
:103000005420484F54454E44290020544845524DC1
:10301000414C2052554E415741592028205052458D
:1030200048454154204845415442454429005052A6
:103030004548454154204552524F52004245442094
:1030400050524548454154204552524F5200457216
:10305000723A2000207472696767657265642100A6
:103060004865617465727320737769746368656419
:10307000206F66662E20003A20004572723A20507A
:1030800052494E542046414E204552524F52005014
:103090006C65617365207265737461727400252DAF
:1030A0003773003A200025642F3600252D32305327
:1030B0000020202020202020202020202020202030
:1030C0002020202000203A20002020202020202026
:1030D0002020202020202020202020202000252DFE
:1030E000323073002020202020202020202020208B
:1030F000200025730025632533642F256425630094
:103100005A25362E32662563005A2020202D2D2D7B
:10311000200025632533642525002D2D2D00253322
:1031200068686400253353253373252500555342C1
:103130000020202000205344002025753E257500E6
:10314000203F3E257500204625750020463F002083
:10315000463020200025632D2D3A2D2D20200025DE
:103160006325337568202563256300256325303288
:10317000753A25303275256325630050494E444128
:103180002048656174696E670043616C69627261B1
:1031900074696F6E20646F6E650043616C69627262
:1031A0006174696E67205A0042656420646F6E65C1
:1031B000004265642048656174696E670048656116
:1031C00074696E6720646F6E652E0048656174696E
:1031D0006E67006D6D0059005800583A00593A006A
:1031E0005A3A002563252D31332E313353252B35A3
:1031F0002E33660020003E003E0020003E003E00D0
:1032000054656D70657261747572652063616C6977
:1032100062726174696F6E206661696C65642E20EC
:10322000436F6E74696E756520776974682070727B
:10323000657373696E6720746865206B6E6F622EAC
:103240000054656D70657261747572652063616CA0
:103250006962726174696F6E20646F6E652E2043BF
:103260006F6E74696E756520776974682070726519
:103270007373696E6720746865206B6E6F622E00D1
:103280005A30005A31005930005931005830005836
:103290003100456E642073746F70732064696167D8
:1032A000005B303B305D20706F696E74206F666626
:1032B0007365740041646A757374696E67205A3A65
:1032C00000526573657400526561722073696465AC
:1032D000205B756D5D0046726F6E74207369646566
:1032E0005B756D5D00526967687420736964655B26
:1032F000756D5D004C6566742073696465205B754F
:103300006D5D005365742074656D706572617475D0
:1033100072653A00417265206C65667420616E6466
:10332000207269676874205A7E636172726961678E
:10333000657320616C6C2075703F0043616C69623D
:10334000726174696E672058595A2E20526F7461E9
:10335000746520746865206B6E6F6220746F206DD9
:103360006F766520746865205A20636172726961A6
:10337000676520757020746F2074686520656E64C1
:103380002073746F70706572732E20436C69636B69
:10339000207768656E20646F6E652E0043616C69EE
:1033A00062726174696E67205A2E20526F74617464
:1033B0006520746865206B6E6F6220746F206D6F7E
:1033C000766520746865205A20636172726961674E
:1033D0006520757020746F2074686520656E6420A8
:1033E00073746F70706572732E20436C69636B2009
:1033F0007768656E20646F6E652E0054656D70652C
:103400007261747572652063616C6962726174695E
:103410006F6E206661696C65640054656D706572DD
:1034200061747572652063616C6962726174696F41
:103430006E2069732066696E697368656420616EC9
:1034400064206163746976652E2054656D702E204A
:1034500063616C6962726174696F6E2063616E2072
:1034600062652064697361626C656420696E206DB9
:10347000656E752053657474696E67732D3E54656F
:103480006D702E2063616C2E0049523A0046494E01
:1034900044413A0050494E44413A0053656E736FBF
:1034A0007220737461746500202030002020310088
:1034B00054656D702E2063616C6962726174696F0E
:1034C0006E0052657365742058595A2063616C69A7
:1034D00062722E0053686F7720656E642073746F7C
:1034E0007073005049442063616C69627261746951
:1034F0006F6E00426564206C6576656C20636F7248
:1035000072656374004D65736820426564204C6584
:1035100076656C696E670043616C6962726174659F
:10352000205A0043616C6962726174652058595A6F
:103530000053656C66746573742020202020202061
:1035400020200057697A617264004C6F61642061C9
:103550006C6C00456A6563742066696C616D656EAC
:1035600074004375742066696C616D656E740050FB
:103570006C656173652070756C6C206F7574206666
:10358000696C616D656E7420696D6D6564696174E7
:10359000656C7900556E6C6F6164696E6720666951
:1035A0006C616D656E7400526573756D696E672030
:1035B0007072696E740052657365740052656E6155
:1035C0006D65004669727374206C61796572206361
:1035D000616C2E0053656C65637400537465656C93
:1035E000207368656574730053686565740053756E
:1035F00070706F7274004661696C207374617473CB
:10360000204D4D55004661696C20737461747300E0
:103610005374617469737469637320200043616C2F
:103620006962726174696F6E004175746F4C6F618D
:10363000642066696C616D656E7400437574206604
:10364000696C616D656E7400456A656374206669B6
:103650006C616D656E7400556E6C6F616420666997
:103660006C616D656E74004C6F616420746F206EC8
:103670006F7A7A6C65004C6F61642066696C616D6D
:10368000656E74004E6F2053442063617264005075
:1036900072696E742066726F6D20534400526573B8
:1036A000756D65207072696E740050617573652068
:1036B0007072696E7400526573756D652070726901
:1036C0006E7400507265686561740054756E6500B3
:1036D0004C6976652061646A757374205A00496E7E
:1036E000666F2073637265656E004D343400473237
:1036F000382057004739390044697361626C65208E
:103700006661726D206D6F64653F00252D392E391D
:10371000535B002563252D31382E31387325630026
:103720004661726D206E756D626572004572723A07
:1037300020455854522E2046414E204552524F5259
:10374000002F2F20616374696F6E3A726573756D17
:1037500065640020746F6F206C6F6E6720657874ED
:10376000727573696F6E2070726576656E746564CC
:103770000020636F6C6420657874727573696F6E76
:103780002070726576656E74656400457874727534
:10379000646572004D6F7665205A004D6F76652026
:1037A00059004D6F76652058004175746F6C6F61DC
:1037B00064696E672066696C616D656E7420617600
:1037C00061696C61626C65206F6E6C7920776865E9
:1037D0006E2066696C616D656E742073656E736FC3
:1037E00072206973207475726E6564206F6E2E2E60
:1037F0002E004552524F523A2046696C616D656EFB
:10380000742073656E736F72206973206E6F7420FD
:10381000726573706F6E64696E672C20706C656181
:10382000736520636865636B20636F6E6E65637498
:10383000696F6E2E0043616C69627261746500533A
:103840006865657420252E37730A5A206F66667383
:1038500065743A20252B312E3366206D6D0A256361
:10386000436F6E74696E75650A2563537461727473
:103870002066726F6D207A65726F00506C6561739F
:1038800065206C6F61642066696C616D656E742083
:1038900066697273742E0049732066696C616D6588
:1038A0006E74206C6F616465643F0043616E636594
:1038B0006C0046696C616D656E740053656C656380
:1038C000742066696C616D656E743A0052756E6E37
:1038D000696E672057697A6172642077696C6C2021
:1038E00064656C6574652063757272656E742063BF
:1038F000616C6962726174696F6E20726573756C58
:10390000747320616E642073746172742066726FC8
:103910006D2074686520626567696E6E696E672EDA
:1039200020436F6E74696E75653F005072656865FF
:103930006174696E67206E6F7A7A6C652E20506CA8
:103940006561736520776169742E00473830004DDA
:103950003435004D3435205A004737360054656DF4
:103960007065726174757265730053656E736F7202
:1039700020696E666F00457874727564657220699F
:103980006E666F0058595A2063616C2E206465740E
:1039900061696C7300756E6B6E6F776E004D4D557F
:1039A0003220636F6E6E6563746564004461746594
:1039B0003A00686F77746F2E707275736133642E7E
:1039C000636F6D00666F72756D2E70727573613303
:1039D000642E636F6D00707275736133642E636F54
:1039E0006D00746F20756E6C6F61642066696C6128
:1039F0006D656E7400746F206C6F61642066696C15
:103A0000616D656E74005072657373207468652013
:103A10006B6E6F62003E43616E63656C0050726551
:103A200068656174696E6720746F206375740050F7
:103A3000726568656174696E6720746F20656A6578
:103A400063740050726568656174696E6720746F95
:103A500020756E6C6F616400507265686561746991
:103A60006E6720746F206C6F616400436F6F6C64CD
:103A70006F776E00507265686561742074686520A8
:103A80006E6F7A7A6C6521004552524F523A004669
:103A9000696C616D656E7420657874727564696EA9
:103AA000672026207769746820636F72726563747B
:103AB00020636F6C6F723F004175746F6C6F61644F
:103AC000696E672066696C616D656E74206973202C
:103AD0006163746976652C206A75737420707265F1
:103AE000737320746865206B6E6F6220616E642052
:103AF000696E736572742066696C616D656E742E93
:103B00002E2E005072696E742074696D65004669CE
:103B10006C616D656E74207573656400546F7461BB
:103B20006C207072696E742074696D6500546F74D6
:103B3000616C2066696C616D656E740052696768BE
:103B400074004C65667400592064697374616E6317
:103B5000652066726F6D206D696E005365766572C3
:103B60006520736B65773A00536C696768742073DE
:103B70006B65773A004D6561737572656420736B90
:103B8000657700466C617368416972204950204135
:103B90006464723A004D4D553220202020202020B0
:103BA0004E2F410025642E25642E25642D256400AA
:103BB0002046573A004F6374202033203230323091
:103BC00000453344763666756C6C0052414D426F49
:103BD00031336100315F37356D6D5F4D4B323500EC
:103BE0002D2D2D2D2D2D2D2D2D2D2D2D00207265C2
:103BF000706F20556E6B6E6F776E0020332E392EEE
:103C0000312D33353138004669726D776172653A0E
:103C10000025642E25642E25642E2564004D373042
:103C200032004D373031004D373032004D373031B2
:103C300000464C4558202D20203234302F3530009E
:103C400050502020202D20203235342F31303000AC
:103C500048495053202D20203232302F313030004F
:103C600041425320202D20203235352F3130300075
:103C700050432020202D20203237352F3130350081
:103C800041534120202D20203236302F3130350055
:103C900050455420202D20203233302F383500500D
:103CA0004C4120202D20203231352F3630006E6FD0
:103CB0007A7A6C65202D20203235302F30006661F5
:103CC000726D2020202D20203235302F38300025F5
:103CD0002D31322E313253252B382E316600457866
:103CE0007472756465723A0025533A0A2531382E8C
:103CF00032666D200A25533A0A2531306C646820FB
:103D00002530326868646D2025303268686473003D
:103D100025533A0A2531382E32666D200A25533A4A
:103D20000A2531306C64642025303268686468206C
:103D30002530326868646D0025362E32666D6D0060
:103D400025533A0A25530A25533A0A25533A0025A2
:103D5000332E3266010025533A0A25530A252D31A8
:103D6000352E31355325332E3266010A252D313556
:103D70002E31355325332E326601000000A040005D
:103D800000A0400000004000007A43000056439A23
:103D9000D96043FFFFFF4E6F2030784646207265A2
:103DA0006365697665640053656E64696E6720308B
:103DB000784646001F1F1F1F1F1F1F1F4E6F7720B3
:103DC00066726573682066696C653A20004E6F778D
:103DD00020646F696E672066696C653A2000222056
:103DE000706F73002220706172656E743A22005306
:103DF0005542524F5554494E452043414C4C207436
:103E000061726765743A22005344206361726420D2
:103E10006F6B006F70656E526F6F74206661696CB6
:103E2000656400766F6C756D652E696E69742066C9
:103E300061696C656400534420696E697420666131
:103E4000696C0057726974696E6720746F206669C7
:103E50006C653A200046696C652073656C65637417
:103E60006564002053697A653A200046696C6520D4
:103E70006F70656E65643A2000747279696E6720B0
:103E8000746F2063616C6C207375622D67636F645F
:103E9000652066696C6573207769746820746F6F3C
:103EA000206D616E79206C6576656C732E006F7085
:103EB000656E206661696C65642C2046696C653AA4
:103EC0002000536F7274696E672066696C657300B9
:103ED000536F6D652066696C65732077696C6C2023
:103EE0006E6F7420626520736F727465642E204D4E
:103EF00061782E204E6F2E206F662066696C657388
:103F000020696E203120666F6C64657220666F7266
:103F100020736F7274696E67206973203130302EA0
:103F2000002573206C6576656C2065787065637418
:103F300065640046616C73652074726967676572B9
:103F4000696E6700537761707065640046726F6ECA
:103F5000742F6C6566742066616E730041786973B6
:103F60000041786973206C656E677468004C6F6FF0
:103F700073652070756C6C657900456E6473746F41
:103F800070206E6F742068697400456E6473746F7E
:103F900070004D6F746F7200456E6473746F707350
:103FA00000576972696E67206572726F72004265B0
:103FB00064202F20486561746572004E6F74206321
:103FC0006F6E6E6563746564004865617465722F19
:103FD000546865726D6973746F7200506C656173BB
:103FE0006520636865636B203A0053656C66746591
:103FF0007374206572726F7220210046696C616D66
:10400000656E742073656E736F72005072696E74A2
:104010002066616E3A004578747275646572206638
:10402000616E3A0043616C6962726174696E672007
:10403000686F6D650053656C6674657374206661A6
:10404000696C6564202000416C6C20636F7272653E
:10405000637420202020202000436865636B696E14
:10406000672073656E736F72732000436865636BBE
:10407000696E6720686F74656E6420200043686510
:10408000636B696E672062656420202020200043F6
:104090006865636B696E67205A20617869732020B8
:1040A00000436865636B696E6720592061786973A6
:1040B000202000436865636B696E67205820617833
:1040C0006973202000436865636B696E6720656EC5
:1040D0006473746F7073004572726F72202D207359
:1040E0007461746963206D656D6F727920686173A6
:1040F000206265656E206F7665727772697474658B
:104100006E00436172642072656D6F766564003382
:104110003033302048617269626F20456469746988
:104120006F6E202D204D4B322E3553204F4B2E00DD
:104130004261636B002D2D2D2D2D2D2D2D2D2D2D1F
:104140002D2D2D2D2D2D2D2D2D00000000000011C9
:104150000A04534420636172642072656C65617364
:104160006564006572726F723A20756E6B6E6F7760
:104170006E206D6F76650A006E6F206D6F76650A32
:1041800000542D636F64650A00756E6C6F61640A7C
:10419000006C6F61640A006D6D755F6765745F72B6
:1041A0006573706F6E7365202D20626567696E2080
:1041B0006D6F76653A20006D6D755F6765745F722F
:1041C0006573706F6E736528292072657475726EE1
:1041D000696E673A2025640A00556E6C6F616469E8
:1041E0006E672066696E697368656420320A0055DF
:1041F0006E6C6F616420320A00556E6C6F61646989
:104200006E672066696E697368656420310A0055BF
:104210006E6C6F616420310A004D4D5520737461DE
:1042200072747320726573706F6E64696E670A00D2
:104230004D4D55206E6F7420726573706F6E64699A
:104240006E670A0046696C616D656E74206F7574E7
:10425000206F662072616E6765202564200A000069
:1042600000803F555585410000803F0000C8410057
:10427000000040555505420000C03F000048420084
:1042800000204055558542000070C1ABAAA64200EF
:104290000060C10000A0410000C0C000002041003B
:1042A000002041ABAA3A41000020C15555D540003D
:1042B0000048C2555505424D373031204534004D38
:1042C000373031204533004D373031204532004DF5
:1042D000373031204531004D3730312045300046F0
:1042E000696C616D656E74206E72206F7574206FDD
:1042F000662072616E67652100206661696C656485
:104300002E00207375636365656465642E004D4DF2
:10431000552063616E5F6C6F61643A00416464694B
:1043200074696F6E616C206C6F6164206174746578
:104330006D7074206E722E2025640A004D4D55203C
:104340004F4B2E20526573756D696E672E2E2E00B1
:104350004D4D55204F4B2E20526573756D696E671C
:1043600020706F736974696F6E2E2E2E004D4D553F
:10437000204F4B2E20526573756D696E67207465F2
:104380006D70657261747572652E2E2E00466978A7
:104390002074686520697373756520616E6420748C
:1043A00068656E20707265737320627574746F6EC9
:1043B000206F6E204D4D5520756E69742E00507221
:1043C00065737320746865206B6E6F6220746F2054
:1043D000726573756D65206E6F7A7A6C6520746591
:1043E0006D70657261747572652E004D4D55206E4D
:1043F00065656473207573657220617474656E748D
:10440000696F6E2E0043757474696E672066696CFF
:10441000616D656E7400506C656173652072656DC9
:104420006F76652066696C616D656E7420616E647F
:10443000207468656E2070726573732074686520DF
:104440006B6E6F622E00456A656374696E672066E5
:10445000696C616D656E74004D4D55206C6F6164C3
:10446000206661696C65642020202020002563257A
:1044700033642F25642563004C6F6164696E672087
:1044800066696C616D656E7400506C656173652062
:10449000696E736572742066696C616D656E7420F7
:1044A000696E746F207468652065787472756465D0
:1044B000722C207468656E20707265737320746846
:1044C00065206B6E6F6220746F206C6F6164206971
:1044D000742E00506C6561736520696E736572742B
:1044E0002066696C616D656E7420696E746F2074EE
:1044F00068652066697273742074756265206F66E2
:1045000020746865204D4D552C207468656E2070B0
:104510007265737320746865206B6E6F6220746FB0
:10452000206C6F61642069742E005468652070727D
:10453000696E7465722077696C6C20737461727433
:10454000207072696E74696E672061207A69672DC8
:104550007A6167206C696E652E20526F7461746594
:1045600020746865206B6E6F6220756E74696C20B4
:10457000796F7520726561636820746865206F705B
:1045800074696D616C206865696768742E20436882
:1045900065636B20746865207069637475726573F8
:1045A00020696E207468652068616E64626F6F6B4D
:1045B000202843616C6962726174696F6E20636860
:1045C0006170746572292E0053656C656374207484
:1045D000656D70657261747572652077686963686E
:1045E000206D61746368657320796F7572206D61E9
:1045F00074657269616C2E0043686F6F736520612A
:104600002066696C616D656E7420666F72207468D7
:1046100065204669727374204C617965722043612C
:104620006C6962726174696F6E20616E642073657B
:104630006C65637420697420696E20746865206FEE
:104640006E2D73637265656E206D656E752E004EFE
:104650006F7720492077696C6C2063616C696272A6
:104660006174652064697374616E6365206265744A
:104670007765656E20746970206F662074686520A8
:104680006E6F7A7A6C6520616E6420686561746211
:10469000656420737572666163652E00596F7520BD
:1046A00063616E20616C7761797320726573756DDB
:1046B00065207468652057697A6172642066726F3C
:1046C0006D2043616C6962726174696F6E202D3E6A
:1046D0002057697A6172642E00506C6561736520A1
:1046E000636865636B206F75722068616E64626FCA
:1046F0006F6B20616E642066697820746865207035
:10470000726F626C656D2E205468656E20726573E1
:10471000756D65207468652057697A6172642062DE
:1047200079207265626F6F74696E672074686520A6
:104730007072696E7465722E00416C6C2069732012
:10474000646F6E652E204861707079207072696E9A
:1047500074696E672100496620796F7520686176FB
:1047600065206164646974696F6E616C207374653F
:10477000656C207368656574732C2063616C696275
:104780007261746520746865697220707265736502
:10479000747320696E2053657474696E6773202D7D
:1047A000204857205365747570202D20537465651B
:1047B0006C207368656574732E00506C6561736559
:1047C00020636C65616E2068656174626564206158
:1047D0006E64207468656E207072657373207468EF
:1047E00065206B6E6F622E00446F20796F752077A5
:1047F000616E7420746F20726570656174206C61E5
:104800007374207374657020746F20726561646ABC
:104810007573742064697374616E63652062657476
:104820007765656E206E6F7A7A6C6520616E6420A4
:10483000686561746265643F0053656C65637420EC
:104840006E6F7A7A6C652070726568656174207429
:10485000656D7065726174757265207768696368EB
:10486000206D61746368657320796F7572206D6166
:1048700074657269616C2E0049732066696C616DA4
:10488000656E74206C6F616465643F0049732066D7
:10489000696C616D656E74206C6F616465643F0066
:1048A0004E6F7720492077696C6C2070726568655F
:1048B0006174206E6F7A7A6C6520666F7220504C3E
:1048C000412E00492077696C6C2072756E207A2029
:1048D00063616C6962726174696F6E206E6F772EAE
:1048E000004E6F772072656D6F7665207468652065
:1048F00074657374207072696E742066726F6D20B7
:10490000737465656C2073686565742E00506C6502
:104910006173652072656D6F76652073686970706C
:10492000696E672068656C70657273206669727362
:10493000742E00492077696C6C2072756E2078792E
:104940007A2063616C6962726174696F6E206E6F48
:10495000772E2049742077696C6C2074616B652018
:10496000617070726F782E203132206D696E732EF7
:104970000046697273742C20492077696C6C207230
:10498000756E207468652073656C66746573742039
:10499000746F20636865636B206D6F737420636F41
:1049A0006D6D6F6E20617373656D626C79207072CE
:1049B0006F626C656D732E0048692C204920616D13
:1049C00020796F7572204F726967696E616C205033
:1049D00072757361206933207072696E7465722E0E
:1049E00020576F756C6420796F75206C696B65203A
:1049F0006D6520746F20677569646520796F752017
:104A00007468726F75676820746865207365747563
:104A1000702070726F636573733F0053706F6F6CBB
:104A20004A6F696E00437574746572004669726DF1
:104A300077617265004D6F64656C005374726963D1
:104A400074005761726E004857205365747570008A
:104A5000485720536574757000436865636B730035
:104A60004E6F7A7A6C6520642E00537465656C20F5
:104A7000736865657473004E6F6E6500416C706895
:104A8000616265740054696D6500536F7274004E05
:104A90006F726D616C00466C61736841697200539E
:104AA0004420636172640054656D702E2063616CF4
:104AB0002E004D65736820626564206C6576656CB8
:104AC000696E670048572053657475700046616EC3
:104AD0007320636865636B00462E206175746F6C8C
:104AE0006F61640044697361626C65207374657002
:104AF00070657273004D6F7665206178697300543C
:104B0000656D70657261747572650057697A61725E
:104B10006420656E642073746174653A2025640AAC
:104B20000057697A6172642073746174653A202554
:104B3000640A004578706572696D656E74616C0019
:104B400044697361626C65206661726D206D6F648B
:104B500065004661726D206E756D626572004D383C
:104B600034004D3234004D323320257300617574AA
:104B70006F25692E670047312045252D302E33667D
:104B8000204632373030004D3833002220666169CC
:104B90006C65643A204275666665722066756C6C59
:104BA0002100456E717565696E6720746F207468A9
:104BB000652066726F6E743A2022004572726F72C1
:104BC0003A002200456E717565696E6720746F202A
:104BD0007468652066726F6E743A2022006563689F
:104BE0006F3A00454550524F4D204572726F72002A
:104BF0004D494E54454D50204245442066697865E4
:104C000064004D494E54454D5020484F54454E4444
:104C100020666978656400457872656D65207370FB
:104C2000616E206F6620746865205A2076616C750D
:104C3000657321006F6B0A0073746172740A004D12
:104C40004D5532206669726D7761726520766572A6
:104C500073696F6E20696E76616C69642E2052658F
:104C60007175697265642076657273696F6E3A203A
:104C70006275696C64206E756D62657220256420B2
:104C80006F72206869676865722E004D4D55203D32
:104C90003E20276F6B270A004D4D55203D3E2027B3
:104CA0006F6B270A002564004D4D55203D3E20279F
:104CB0006F6B272C20726573756D65207072696E3D
:104CC000740A004D4D5520726574727920617474B8
:104CD000656D7074206E722E2025640A004D4D554E
:104CE000203D3E20276F6B270A00410A004D4D559D
:104CF000203C3D202741270A004D363030004D36FC
:104D00003030204155544F002568687500410A0035
:104D10004D4D55203C3D202741270A0050300A00C8
:104D20004D25640A004D4D55203C3D20274D2564FE
:104D3000270A0057300A004D4D55203C3D2027578B
:104D400030270A0053330A004D4D55203C3D2027A3
:104D50005333270A0052300A004D4D55203C3D2068
:104D6000275230270A004B25640A004D4D55203C40
:104D70003D20274B2564270A004525640A004D4D38
:104D800055203C3D2027452564270A0055300A0060
:104D90004D4D55203C3D20275530270A0043300A11
:104DA000004D4D55203C3D20274330270A004C251F
:104DB000640A004D4D55203C3D20274C2564270AB0
:104DC000005425640A004D4D55203C3D20275425B4
:104DD00064270A004D4D55202D20454E41424C453B
:104DE0004400256868750050300A004D310A004DB6
:104DF0004D55203C3D20274D3127004D4D55207607
:104E0000657273696F6E2076616C6964004D4D55F3
:104E1000203D3E202725646F6B270A00257500532F
:104E2000320A004D4D55203C3D2027533227004D7E
:104E30004D55203D3E202725646F6B270A002575C0
:104E4000004D4D55206E6F7420726573706F6E64E7
:104E5000696E67202D2044495341424C454400531C
:104E6000310A004D4D55203C3D2027533127004D40
:104E70004D55203D3E2027737461727427004265B2
:104E800064206C6576656C696E67206661696C6527
:104E9000642E2053656E736F72206469646E742093
:104EA000747269676765722E204465627269732047
:104EB0006F6E206E6F7A7A6C653F205761697469F6
:104EC0006E6720666F722072657365742E00506C79
:104ED0006561736520757064617465206669726DC3
:104EE0007761726520696E20796F7572204D4D551E
:104EF000322E2057616974696E6720666F72207266
:104F0000657365742E005072696E746572206E6FE1
:104F10007A7A6C65206469616D6574657220646974
:104F200066666572732066726F6D207468652047CF
:104F30002D636F64652E20506C6561736520636816
:104F400065636B207468652076616C756520696E99
:104F50002073657474696E67732E205072696E7465
:104F60002063616E63656C6C65642E005072696EBF
:104F7000746572206E6F7A7A6C65206469616D6504
:104F800074657220646966666572732066726F6DFF
:104F90002074686520472D636F64652E20436F6E13
:104FA00074696E75653F002079303D25640A0020E4
:104FB00078303D25640A004F4B0A004552524F524B
:104FC0002061643D25640A002020207A303D25645C
:104FD0000A00207A303D25640A002079303D25649E
:104FE0000A002078303D25640A0078797A63616C84
:104FF0005F66696E645F706F696E745F63656E741F
:105000006572320A0000002100240027002A002DCA
:10501000003000330001010000040107010A010013
:10502000002200250028002B002E00310034000251
:10503000010000050108010B0100002000230026EB
:105040000029002C002F003200000100000301069F
:1050500001090105050505070508080808020202FF
:10506000020A0A0808040404040101010101010103
:10507000010303030303030303040707070C0C0CDA
:105080000C0C0C0C0C0202020206060606060606B2
:10509000060B0B0B0B0B0B0B0B07070A0A0A0A0A72
:1050A0000A05050504040408080102102020080868
:1050B000102040102040800201020108040201017A
:1050C0000204081020408080402010080402018063
:1050D00004020180402010080402010804020101BA
:1050E00002040810204080010204081020408010B3
:1050F00008040880102040044080102040048000F4
:10510000000A0B02090C0D0E080703040100000041
:10511000000000000000000000000000000000008F
:10512000000000000000000000000012111000004C
:10513000000000000000000000000000000000006F
:10514000000000000000000000000000000000005F
:10515000000000000000002110422063308440A5C0
:1051600050C660E770088129914AA16BB18CC1AD2E
:10517000D1CEE1EFF13112100273325222B55294C6
:1051800042F772D662399318837BB35AA3BDD39C7E
:10519000C3FFF3DEE36224433420040114E664C752
:1051A00074A44485546AA54BB528850995EEE5CFCE
:1051B000F5ACC58DD55336722611163006D776F666
:1051C000669556B4465BB77AA719973887DFF7FE1E
:1051D000E79DD7BCC7C448E5588668A778400861F2
:1051E0001802282338CCC9EDD98EE9AFF94889696E
:1051F000990AA92BB9F55AD44AB77A966A711A5006
:105200000A333A122AFDDBDCCBBFFB9EEB799B58BD
:105210008B3BBB1AABA66C877CE44CC55C222C0391
:105220003C600C411CAEED8FFDECCDCDDD2AAD0B0D
:10523000BD688D499D977EB66ED55EF44E133E32A5
:105240002E511E700E9FFFBEEFDDDFFCCF1BBF3A5D
:10525000AF599F788F8891A981CAB1EBA10CD12D4C
:10526000C14EF16FE18010A100C230E3200450254F
:105270004046706760B9839893FBA3DAB33DC31CC3
:10528000D37FE35EF3B1029012F322D2323542149F
:105290005277625672EAB5CBA5A89589856EF54F0F
:1052A000E52CD50DC5E234C324A0148104667447EF
:1052B0006424540544DBA7FAB79987B8975FE77E63
:1052C000F71DC73CD7D326F2369106B0165766763F
:1052D00076154634564CD96DC90EF92FE9C899E9AF
:1052E000898AB9ABA94458654806782768C018E18F
:1052F000088238A3287DCB5CDB3FEB1EFBF98BD803
:105300009BBBAB9ABB754A545A376A167AF10AD0DE
:105310001AB32A923A2EFD0FED6CDD4DCDAABD8B4E
:10532000ADE89DC98D267C076C645C454CA23C832E
:105330002CE01CC10C1FEF3EFF5DCF7CDF9BAFBAA2
:10534000BFD98FF89F176E367E554E745E932EB27E
:105350003ED10EF01E7C3C3E3F2F2A225C00436172
:105360006E6E6F7420656E74657220737562646909
:10537000723A20004D3234004D323320257300053F
:105380002E2E0046696C6520696E636F6D706C65CA
:1053900074652E20436F6E74696E756520616E7939
:1053A0007761793F004D61696E004B494C4C454433
:1053B0002E20005072696E7465722068616C74658D
:1053C000642E206B696C6C28292063616C6C6564A9
:1053D00021004B494C4C3A2025640A004D323231B1
:1053E00020496E76616C69642065787472756465B5
:1053F0007220004D32313820496E76616C6964202C
:10540000657874727564657220004D3130392049B9
:105410006E76616C6964206578747275646572205B
:10542000004D31303520496E76616C6964206578B5
:1054300074727564657220004D31303420496E7687
:10544000616C6964206578747275646572200020EF
:10545000573A0020453A00543A005A206C69766564
:105460002061646A757374206F7574206F66207292
:10547000616E67652E2053657474696E6720746F62
:1054800020302E20436C69636B20746F20636F6E35
:1054900074696E75652E005A206C697665206164AA
:1054A0006A757374206F7574206F662072616E6701
:1054B000652E2053657474696E6720746F20300008
:1054C00020423A0020453A00543A00506C6561731E
:1054D0006520776169740057616974696E67206639
:1054E0006F72206E6F7A7A6C6520616E64206265DF
:1054F0006420636F6F6C696E670053656C6620741F
:10550000657374204F4B0053656C6620746573742B
:105510002073746172742020004578747220666173
:105520006E2073706565643A202564200A0050720D
:10553000696E742066616E2073706565643A20251B
:1055400064200A005465737420313A0A004D3834DF
:10555000006C63645F73656C66636865636B5F6151
:105560007869732025642C2025640A00473120586F
:10557000352E302045342E302046313030302E301C
:10558000004731205A302E32302046313030302E14
:1055900030004731205835352E30204532352046F1
:1055A000313430302E3000473120592D322E30200A
:1055B00046313030302E3000473120583234302ED2
:1055C00030204532352E30202046323230302E30D9
:1055D000004739322045302E30004731205A302ED6
:1055E000332046313030302E3000473120583535A9
:1055F0002E302045382E302046323030302E3000CC
:1056000047312058352E30204533322E3020463158
:105610003830302E30004731205835352E30204577
:1056200033322E302046313037332E300047312090
:105630004634303030004D32303420533130303049
:10564000004731205A352046373230302E30303046
:1056500000473120452D312E353030303020463254
:105660003130302E3030303030004D383300473953
:105670003000473231004739322045302E30004764
:105680003120583530205935352045332E363237C4
:1056900037330047312058323030205935352045D6
:1056A000302E3439333836004731205832303020EC
:1056B0005937352045332E363237373300473120BE
:1056C000583530205937352045302E343933383667
:1056D00000473120583530205939352045332E3692
:1056E000323737330047312058323030205939357E
:1056F0002045302E34393338360047312058323087
:105700003020593131352045332E3632373733008A
:1057100047312058353020593131352045302E342D
:105720003933383600473120583530205931333538
:105730002045332E36323737330047312058323048
:105740003020593133352045302E3636313734004C
:105750004731205832303020593135352045322EEE
:105760003632373733004731205831303020593105
:1057700035352045320047312058373520593135ED
:10578000352045322E350047312046313038300043
:105790004731205A302E3135302046373230302EC6
:1057A0003030300047312058353020593135350000
:1057B0004739322045302E3000473238004D3130E5
:1057C00039004D313930004D3130370054256400F7
:1057D0004731205A302E342046313030302E3000C0
:1057E000473120592D332E302046313030302E3085
:1057F000004D383300473120583130302E302045AD
:1058000031322E352046313030302E3000473120B5
:105810005836302E302045392E3020463130303049
:105820002E300016560056EA55DA55D155B855A710
:1058300055925581556C55765672566E566A56512C
:1058400056415636562D564731205835302059335B
:10585000352045252D2E336600A45790578757765F
:1058600057665750573A5725571057FA56E556D1AD
:1058700056BD56A85693567F56496E76616C69643C
:10588000205049442063616C2E20726573756C74DE
:10589000732E204E6F742073746F72656420746F62
:1058A00020454550524F4D2E004D35303000473188
:1058B000205A3135204631353030004739310047E4
:1058C0003120583530205931393020453020463785
:1058D00030303000473930004D3834004D373032E9
:1058E000204300473120583130205931383020468C
:1058F00034303030004731205A3130204631333097
:10590000302E303030004D313430205330004D31A6
:10591000303420533000473120452D302E3037357C
:1059200030302046323130302E3030303030004D83
:105930003130370025530A20252D31362E3136538C
:10594000252D33640A20252D31362E313653252D51
:1059500033640025530A20252D31362E3136532548
:105960002D33640A20252D31362E313653252D3323
:10597000640A20252D31362E313653252D3364000F
:1059800025530A20252D31362E313653252D3364EB
:105990000A25530A20252D31362E313653252D3335
:1059A000640A0020257325336401200A004D31313B
:1059B00037204669727374206C6179657220636167
:1059C0006C2E005049442063616C2E2066696E691C
:1059D00073686564005049442063616C2E20202068
:1059E0002020202020202020005072696E7420701A
:1059F0006175736564005072696E742046414E0093
:105A00004E6F7A7A6C652046414E00546F74616C1B
:105A1000004C617374207072696E74004D4D552096
:105A20006C6F6164206661696C73004D4D55206632
:105A300061696C73004C617374207072696E7420BC
:105A40006661696C75726573004D4D5520706F7796
:105A50006572206661696C73004D4D55206C6F61F5
:105A600064206661696C73004D4D55206661696CF8
:105A70007300546F74616C206661696C7572657334
:105A80000046696C616D2E2072756E6F75747300BF
:105A9000546F74616C206661696C75726573004641
:105AA000696C616D2E2072756E6F757473004C6138
:105AB0007374207072696E74206661696C757265AA
:105AC000730050494E4441002F2F20616374696F69
:105AD0006E3A706175736564002573202534642007
